:100000000C9472000C9493000C9493000C94930045
:100010000C9493000C9401050C94DC040C94930054
:100020000C9493000C9493000C9493000C94930004
:100030000C9493000C9493000C9493000C949300F4
:100040000C9493000C9493000C9493000C949300E4
:100050000C9493000C9493000C9493000C949300D4
:100060000C9493000C946C030C9493000C949300E8
:100070000C9493000C9493000C9493000C949300B4
:100080000C9493000C9493000C9493000C949300A4
:100090000C9493000C9493000C9493000C94930094
:1000A0000C9493000C9493000C9493000C94930084
:1000B0000C9493000C9493000C9493000C94930074
:1000C0000C9493000C9493000C9493000C94930064
:1000D0000C9493000C9493000C9493000C94930054
:1000E0000C94930011241FBECFEFD1E2DEBFCDBF31
:1000F00000E00CBF13E0A0E0B2E0E2E5FAE100E0CE
:100100000BBF02C007900D92A830B107D9F713E0DA
:10011000A8E0B3E001C01D92AC32B107E1F70E9444
:1001200032070C94270D0C94000086E69EE0FC013B
:100130003197F1F74098419840E348B9429A20E05E
:1001400038E4F9013197F1F74298FC013197F1F762
:100150004098419848B9429AF9013197F1F742988D
:10016000FC013197F1F74098419848B9429AF9015A
:100170003197F1F742980197F1F74098419880E262
:1001800088B9429AC9010197F1F74298089598B148
:100190009F7098B928B1982F907F922B98B940986A
:1001A0004198429A20E038E4F9013197F1F74298FA
:1001B00098B19F7098B998B18295807F982B98B923
:1001C00040984198429AC9010197F1F742980895E1
:1001D00086E69EE00197F1F788E20E94C70081E081
:1001E0000E94C70086E00E94C7008EE00E94C70000
:1001F00080E80E94C700089598B19F7098B928B10F
:10020000982F907F922B98B9409A4198429A20E07B
:1002100038E4F9013197F1F7429898B19F7098B995
:1002200098B18295807F982B98B9409A4198429ACC
:10023000C9010197F1F74298089580E80E94C7002C
:100240000895CF93DF93EC0103C00E94FC00219638
:1002500088818823D1F7DF91CF910895823069F0AA
:10026000833018F48130A9F405C0833049F084301C
:1002700081F40BC0862F815805C0862F815402C09F
:10028000862F8D560E94C7000895862F8D520E949A
:10029000C70008950F931F93CF93DF938A01E9015D
:1002A000882311F0662319F40E941D0102C00E94E8
:1002B0002E01C530D10571F4C80160E177E20E94DA
:1002C000DC0CCB01C09690931D0380931C030E940D
:1002D000FC0005C0C430D10511F080E016C0C80193
:1002E00068EE73E00E94DC0CCB0160931E039093D8
:1002F0001F036AE070E00E94DC0CC09690932B0311
:1003000080932A030E94FC0081E0C330D10521F0D4
:10031000813011F080E016C0C80164E670E00E94F0
:10032000DC0CCB0160931E0390931F036AE070E026
:100330000E94DC0CC09690932703809326030E94B2
:10034000FC0081E0C230D10521F0813011F080E065
:1003500016C0C8016AE070E00E94DC0CCB0160931B
:100360001E0390931F036AE070E00E94DC0CC096AD
:1003700090932403809323030E94FC0081E0C1300A
:10038000D10511F0813061F4C8016AE070E00E948B
:10039000DC0CC09690932903809328030E94FC00F4
:1003A00026971CF085E40E94FC00DF91CF911F91FD
:1003B0000F9108953B9A43980895259A2D9A089590
:1003C000269A2E9A0895279A2F9A089510928900B6
:1003D00090E0A0E0B0E0BC01CD010E946E0A2BE7E6
:1003E00034E14EEE5FE30E943E0920E030E04CE055
:1003F00052E40E9411090E946807609388000895E2
:1004000010928B0090E0A0E0B0E0BC01CD010E9412
:100410006E0A2BE734E14EEE5FE30E943E0920E0D6
:1004200030E04CE052E40E9411090E94680760939A
:100430008A00089510928D0090E0A0E0B0E0BC0129
:10044000CD010E946E0A2BE734E14EEE5FE30E947D
:100450003E0920E030E04CE052E40E9411090E9485
:10046000680760938C00089583E0809389008FEF84
:1004700080938800089583E080938B008FEF8093B2
:100480008A00089583E080938D008FEF80938C0025
:10049000089580EA0E94E60180E00E94000285E063
:1004A0000E941A0280E29EE420E731E0F9013197D0
:1004B000F1F70197D9F70895E1E8F0E010828CEFA9
:1004C0008093850081E08093840093E0909389007D
:1004D0008FEF8093880090938B0080938A00909395
:1004E0008D0080938C0090938700809386008BEA28
:1004F00080938000109282008CE080830895EF92B8
:10050000FF920F931F93CF93DF930E94490281E2E2
:100510000E94E60188E20E94000280E197E220E763
:1005200031E0F9013197F1F70197D9F718E2C0E707
:10053000D1E01F5F812F0E94000284EF91E0FE0155
:100540003197F1F70197D9F71C3399F793E0E92E2A
:1005500081E2F82EC0E7D1E06CC0F3941F5F8F2DCD
:100560000E94E601812F0E94000284EF91E0FE01CB
:100570003197F1F70197D9F70F5F80910A03801740
:1005800060F78B3008F43FC00F2D0B5F802F0E9467
:10059000E60188E893E1FE013197F1F70197D9F779
:1005A000802F8A500E94E60188E893E1FE0131978E
:1005B000F1F70197D9F78F2D0E94E60188E893E1C2
:1005C000FE013197F1F70197D9F780E00E941A02F6
:1005D00088E893E1FE013197F1F70197D9F78AE0B6
:1005E0000E941A0288E893E1FE013197F1F7019722
:1005F000D9F785E00E941A0288E893E1FE0131975D
:10060000F1F70197D9F700E010C0FA9411508F2D3F
:100610000E94E601812F0E9400028CEB92E0FE0115
:100620003197F1F70197D9F70F5F80910A0380178F
:1006300060F7EA948FEFE81611F000E09ECFC0E774
:10064000D1E0012F03531150812F0E9400028CE250
:1006500091E0FE013197F1F70197D9F7101799F75B
:100660000E94490293E0909389008FEF8093880065
:1006700090938B0080938A0090938D0080938C00E0
:10068000DF91CF911F910F91FF90EF90089584EB30
:100690000E941A0280E49CE920E731E0F9013197D9
:1006A000F1F70197D9F7089586B1886088B9089560
:1006B00086B1877F88B90895E1ECF0E0108210924E
:1006C000C00086E08093C2008FE58093C400109242
:1006D000C50088E9808308951F920F920FB60F928C
:1006E0000BB60F9211241F932F933F934F935F9359
:1006F0006F937F938F939F93AF93BF93EF93FF93EA
:100700008091C60080932503883319F488E090E037
:1007100017C0823319F482E090E012C0843319F4D8
:1007200084E090E00DC0863319F486E090E008C0C4
:10073000853311F412B81DC0873339F487E090E097
:10074000909309038093080314C0893321F486B180
:10075000877F88B90EC0833361F482B1807F82B90C
:100760000E947F0284E68093C600109209031092D3
:10077000080310912503113389F40E944703109355
:10078000C60080E395E720E731E0F9013197F1F702
:100790000197D9F71092090310920803809125035D
:1007A000813619F410920A0321C0823611F485E0D3
:1007B00007C0833611F48AE003C0843621F48FE049
:1007C00080930A0313C0853611F484E1F9CF87368C
:1007D00039F48AE090E0909309038093080306C0FF
:1007E000803321F41092090310920803FF91EF91D6
:1007F000BF91AF919F918F917F916F915F914F9139
:100800003F912F911F910F900BBE0F900FBE0F9035
:100810001F9018956C98749A08956D98759A08951C
:1008200087B1876F87B988B1807888B9089510BA81
:1008300011BA1092070110920801089581B18F60DA
:1008400081B982B1807F82B9EAE0F1E0808188617C
:100850008083EBE0F1E0808188618083089587B137
:10086000876F87B988B1807888B910BA11BA1092A9
:1008700007011092080181B18F6081B982B1807F38
:1008800082B9EAE0F1E0808188618083EBE0F1E009
:100890008081886180836C98749A6D98759A3B9A70
:1008A0004398259A2D9A269A2E9A279A2F9A089538
:1008B000E1E2F1E010829FEF9093250181E08093C7
:1008C0002401109229019093280110922B019093FA
:1008D0002A0110922D0190932C0189EA8093200126
:1008E0008BE080830895EAE7F0E0108210927B00AD
:1008F00080E280937C0080E880BF86E88083089552
:10090000982F883018F088E080937B009770906271
:1009100090937C0080917A00806480937A0080912B
:100920007A0084FFFCCF8091790090917A009061E9
:1009300090937A0010927B0008950F931F93182FC5
:10094000062F842F0E948004482F80932003812F3C
:10095000602F50E023E030E00E944A011F910F9188
:1009600008958093280160932A01089592B1907FA1
:100970008F70892B82B9089582B1807F866082B999
:10098000089582B1807F896082B9089582B1807FA5
:1009900082B90895F894EAE6F0E08081826080836D
:1009A000EC9A78940895F894EAE6F0E08081886003
:1009B0008083ED9A789408951F920F920FB60F924C
:1009C00011248F939F93AF93BF93809116039091BF
:1009D0001703A0911803B09119030196A11DB11D31
:1009E0008093160390931703A0931803B0931903F1
:1009F000BF91AF919F918F910F900FBE0F901F905D
:100A000018951F920F920FB60F9211248F939F93F8
:100A1000AF93BF938091120390911303A09114039D
:100A2000B09115030196A11DB11D809312039093FF
:100A30001303A0931403B0931503BF91AF919F913B
:100A40008F910F900FBE0F901F90189582B1807FED
:100A5000846082B9089582B1807F826082B90895EE
:100A600082B1807F816082B9089582B1807F886081
:100A700082B90895EF92FF920F931F93A0E0B0E028
:100A8000BC01CD010E946E0A28E431EE42E850E438
:100A90000E943E090E9468077B0100E010E010926E
:100AA0001603109217031092180310921903109254
:100AB00012031092130310921403109215038091E5
:100AC000160390911703A0911803B0911903209178
:100AD00012033091130340911403509115038E15A6
:100AE0009F05A007B10728F42E153F0540075107C1
:100AF00030F382B1807F82B91F910F91FF90EF9008
:100B00000895EF92FF920F931F93A0E0B0E0BC0115
:100B1000CD010E946E0A25EE30ED4AEA50E40E94B3
:100B20003E090E9468077B018C0110921603109207
:100B30001703109218031092190320911603309195
:100B40001703409118035091190382E061E0A90155
:100B500023E030E00E944A01809116039091170330
:100B6000A0911803B0911903E816F9060A071B07AC
:100B700020F782B1807F82B986B1886088B980E22F
:100B80009EE420E731E0F9013197F1F70197D9F7B9
:100B900086B1877F88B91F910F91FF90EF900895DC
:100BA00022B1207F266022B90E948105089522B1DA
:100BB000207F296022B90E948105089522B1207FFB
:100BC000246022B9880F991F0E943A05089522B126
:100BD000207F226022B9880F991F0E943A0508954C
:100BE00022B1207F216022B9880F991F0E943A0507
:100BF000089522B1207F286022B9880F991F0E9492
:100C00003A050895F8940E942F04EAE7F0E0108274
:100C100010927B0080E280937C0080E880BF86E8B1
:100C20008083E1E2F1E010829FEF9093250181E063
:100C300080932401109229019093280110922B0196
:100C400090932A0110922D0190932C0189EA8093B0
:100C500020018BE080830E945C02E1ECF0E01082D6
:100C60001092C00086E08093C2008FE58093C4009C
:100C70001092C50088E98083F894EAE6F0E080816C
:100C800082608083EC9A7894F894EAE6F0E08081C0
:100C900088608083ED9A7894789408950F931F93D9
:100CA00083E00E94800480930F0382E00E9480040E
:100CB0008093100381E00E948004809311031092BE
:100CC0000E0381E061E043E00E949D0481E065E065
:100CD00042E00E949D0481E069E041E00E949D04A1
:100CE00080910F03893250F1809111038932C8F449
:100CF00025C083E00E94800480930F0382E00E945D
:100D000080048093100381E00E948004809311038B
:100D100082B1807F866082B90093280110932A01F6
:100D200002C006EE1CED80910F03893220F0809105
:100D300011038932F0F680E78093C60030911003EA
:100D4000393268F081E080930E0382B1807F866043
:100D500082B986EE809328018CED80932A01209140
:100D60000F03283288F480910E03882369F481E010
:100D700080930E0382B1807F866082B98FEF80936B
:100D800028018EEB80932A0190911103983288F408
:100D900080910E03882369F481E080930E0382B171
:100DA000807F866082B988EC809328018BEE8093E7
:100DB0002A01383258F4283248F4983238F482B193
:100DC000807F866082B982B1807F82B980E01F9186
:100DD0000F910895EF92FF920F931F93A0E0B0E060
:100DE000BC01CD010E946E0A25EE30ED4AEA50E4C6
:100DF0000E943E090E9468077B018C011092160335
:100E00001092170310921803109219030E944E06B5
:100E1000282F8091160390911703A0911803B09189
:100E20001903E816F9060A071B0780F7213071F746
:100E300082B1807F82B986B1886088B988EB9BE0F7
:100E400020E731E0F9013197F1F70197D9F786B141
:100E5000877F88B91F910F91FF90EF9008950E94AE
:100E6000EA0608951F93CF93DF930E9402060E9423
:100E700095000E94E8000E94490280910803909129
:100E800009030A97D1F714E7CAE0D0E0809108037C
:100E9000909109030A9711F40E944E06809108036D
:100EA00090910903069751F48AE590E00E94E705C6
:100EB0001093C600D0930903C093080380910803E0
:100EC00090910903892B11F782B1807F82B9DECF1F
:100ED000EF92FF920F931F937B018C0120E030E093
:100EE00040E05FE40E94EA0988238CF0C801B70162
:100EF00020E030E040E05FE40E94E0080E941A0A2F
:100F00009B01AC01205030404040504806C0C80111
:100F1000B7010E941A0A9B01AC01B901CA011F91D5
:100F20000F91FF90EF900895A0E0B0E0EAE9F7E0BC
:100F30000C94F00CDC012B01FA019C91923008F426
:100F400039C1EB018881823008F433C1943069F4EF
:100F5000843009F02FC111969C91119789819817BF
:100F600009F428C1A0E0B2E025C1843009F421C110
:100F70008230A9F4923009F01DC19A01AD0188E0D8
:100F8000EA010990AE01E90109929E018150C1F781
:100F9000E201898111969C918923818308C1923055
:100FA00009F407C112962D903C901397EB018A81AA
:100FB0009B811496AD90BD90CD90DC901797EC80FE
:100FC000FD800E811F819101281B390BB90137FF6C
:100FD00004C066277727621B730B603271050CF023
:100FE00061C0121613066CF537014801062E04C0C5
:100FF00096948794779467940A94D2F721E030E02E
:1010000040E050E004C0220F331F441F551F6A9573
:10101000D2F721503040404050402E213F21402304
:101020005123211531054105510521F021E030E022
:1010300040E050E079018A01E628F72808291929BB
:101040003CC0232BD1F1260E371E35014601062E5A
:1010500004C096948794779467940A94D2F721E019
:1010600030E040E050E004C0220F331F441F551F02
:101070006A95D2F721503040404050402A213B2110
:101080004C215D21211531054105510521F021E05B
:1010900030E040E050E059016A01A628B728C8288E
:1010A000D9280BC0821593052CF01C01AA24BB245F
:1010B000650103C0EE24FF24870111969C91D201A3
:1010C00011968C91981709F445C0992339F0A8011D
:1010D00097012A193B094C095D0906C0A601950133
:1010E0002E193F09400B510B57FD08C01182338266
:1010F000228224833583468357831DC081E0818308
:101100003382228288279927DC01821B930BA40B50
:10111000B50B84839583A683B7830DC0220F331F3D
:10112000441F551F248335834683578382819381CF
:101130000197938382832481358146815781DA0127
:10114000C9010197A109B1098F5F9F4FAF4FBF43FD
:1011500028F30BC0918333822282EA0CFB1C0C1D06
:101160001D1DE482F5820683178383E0808324813A
:1011700035814681578157FF1AC0C901AA2797FDBB
:10118000A095BA2F81709070A070B0705695479559
:1011900037952795822B932BA42BB52B848395838E
:1011A000A683B78382819381019693838283DF0133
:1011B00001C0D201CD01CDB7DEB7E2E10C940C0D38
:1011C000A0E2B0E0E6EEF8E00C94FC0C69837A83D0
:1011D0008B839C832D833E834F835887E9E0EE2EDB
:1011E000F12CEC0EFD1ECE010196B7010E940B0CF6
:1011F0008E010F5E1F4FCE010596B8010E940B0CA9
:101200008A8991E089278A8BC701B801AE01475EC0
:101210005F4F0E9494070E94360BA096E6E00C9464
:10122000180DA0E2B0E0E7E1F9E00C94FC0C698352
:101230007A838B839C832D833E834F835887F9E089
:10124000EF2EF12CEC0EFD1ECE010196B7010E948F
:101250000B0C8E010F5E1F4FCE010596B8010E9448
:101260000B0CC701B801AE01475E5F4F0E949407A7
:101270000E94360BA096E6E00C94180DA8E1B0E0B1
:10128000E4E4F9E00C94F80C69837A838B839C8303
:101290002D833E834F835887B9E0EB2EF12CEC0E63
:1012A000FD1ECE010196B7010E940B0C8E010F5E50
:1012B0001F4FCE010596B8010E940B0C29852230E4
:1012C00008F47EC03989323010F4B8017CC08A85B8
:1012D0009A8989278A87243011F0223031F4231724
:1012E00009F06EC060E072E06EC0343039F41D86E3
:1012F0001E861F86188A1C861B8604C0323021F485
:1013000084E08987B7015FC02B853C858B899C89E8
:10131000281B390B3C872B87ED84FE840F851889A9
:10132000AD88BE88CF88D88CEA14FB040C051D0557
:1013300040F4EE0CFF1C001F111F215030403C8771
:101340002B8720E030E040E050E080E090E0A0E03B
:10135000B0E460E070E0EA14FB040C051D0540F009
:10136000282B392B4A2B5B2BEA18FB080C091D098B
:10137000B695A79597958795EE0CFF1C001F111F3A
:101380006F5F7F4F6F31710531F7DA01C9018F77D8
:101390009070A070B07080349105A105B10561F422
:1013A00027FD0AC0E114F1040105110529F0205CB4
:1013B0003F4F4F4F5F4F20782D873E874F87588B89
:1013C000BE01675F7F4FCB010E94360B6896EAE053
:1013D0000C94140DA8E1B0E0E0EFF9E00C94FC0CE3
:1013E00069837A838B839C832D833E834F835887C5
:1013F00089E0E82EF12CEC0EFD1ECE010196B7011E
:101400000E940B0C8E010F5E1F4FCE010596B80196
:101410000E940B0C8985823040F08989823028F047
:10142000C701B8010E94830C01C08FEF6896E6E007
:101430000C94180DACE0B0E0E0E2FAE00C94000D82
:1014400069837A838B839C83CE010196BE016B5F97
:101450007F4F0E940B0C8D81823061F1823050F100
:10146000843021F48E81882351F12EC02F8138855C
:1014700037FD20C06E812F3131051CF06623F9F055
:1014800023C08EE190E0821B930B29853A854B8522
:101490005C8504C056954795379527958A95D2F770
:1014A0006623B1F050954095309521953F4F4F4FB1
:1014B0005F4F0EC020E030E040E050E009C02FEF69
:1014C0003FEF4FEF5FE704C020E030E040E050E83E
:1014D000B901CA012C96E2E00C941C0DA8E0B0E022
:1014E000E4E7FAE00C94F80C7B018C0161157105BE
:1014F0008105910519F482E0898360C083E08983C6
:101500008EE1C82ED12CDC82CB82ED82FE820F834D
:101510001887C801B7010E94E70AFC013197F7FF5D
:101520003BC0222733272E1B3F0B57016801022E99
:1015300004C0D694C794B794A7940A94D2F740E015
:1015400050E060E070E081E090E0A0E0B0E004C036
:10155000880F991FAA1FBB1F2A95D2F70197A109CF
:10156000B1098E219F21A023B1230097A105B105C8
:1015700021F041E050E060E070E04A295B296C29ED
:101580007D294D835E836F8378878EE190E08E1B8B
:101590009F0B9C838B8312C0309781F00E2E04C06A
:1015A000EE0CFF1C001F111F0A94D2F7ED82FE8281
:1015B0000F831887CE1ADF0ADC82CB821A82CE0113
:1015C00001960E94360B2896EAE00C94140DEF92D7
:1015D000FF920F931F937B018C0180E0E81680E05F
:1015E000F80681E0080780E0180788F48FEFE81616
:1015F000F1040105110531F028F088E090E0A0E049
:10160000B0E017C080E090E0A0E0B0E012C080E061
:10161000E81680E0F80680E0080781E0180728F067
:1016200088E190E0A0E0B0E004C080E190E0A0E0BC
:10163000B0E020E230E040E050E0281B390B4A0BDC
:101640005B0B04C016950795F794E7948A95D2F73B
:10165000F701E85FFD4F8081281B310941095109DD
:10166000C9011F910F91FF90EF900895DF92EF92C3
:10167000FF920F931F93FC01E480F5800681178190
:10168000D1808081823048F480E090E0A0E1B0E039
:10169000E82AF92A0A2B1B2BA5C0843009F49FC025
:1016A000823021F4EE24FF24870105C0E114F10407
:1016B0000105110519F4E0E0F0E096C06281738144
:1016C0009FEF623879070CF05BC022E83FEF261BE2
:1016D000370B2A3131052CF020E030E040E050E0BB
:1016E0002AC0B801A701022E04C0769567955795C8
:1016F00047950A94D2F781E090E0A0E0B0E004C002
:10170000880F991FAA1FBB1F2A95D2F70197A1091D
:10171000B1098E219F21A023B1230097A105B10516
:1017200021F081E090E0A0E0B0E09A01AB01282B2D
:10173000392B4A2B5B2BDA01C9018F779070A0708F
:10174000B07080349105A105B10539F427FF09C0B7
:10175000205C3F4F4F4F5F4F04C0215C3F4F4F4FC6
:101760005F4FE0E0F0E02030A0E03A07A0E04A0759
:10177000A0E45A0710F0E1E0F0E079018A0127C007
:101780006038710564F5FB01E158FF4FD801C701CE
:101790008F779070A070B07080349105A105B1056D
:1017A00039F4E7FE0DC080E490E0A0E0B0E004C0B2
:1017B0008FE390E0A0E0B0E0E80EF91E0A1F1B1FC7
:1017C00017FF05C016950795F794E794319687E0C3
:1017D00016950795F794E7948A95D1F705C0EE24FE
:1017E000FF248701EFEFF0E06E2F6795662767957E
:1017F000902F9F77D794DD24D7948E2F8695492FED
:10180000462B582F5D29B701CA011F910F91FF90F8
:10181000EF90DF900895FC01DB014081518122812E
:10182000622F6F7770E0221F2227221F9381892F5A
:10183000880F822B282F30E0991F9927991F119626
:101840009C93119721153105A9F5411551056105A5
:10185000710511F482E037C082E89FEF13969C93E4
:101860008E9312979A01AB0167E0220F331F441F3A
:10187000551F6A95D1F783E08C930DC0220F331F5B
:10188000441F551F12968D919C91139701971396A3
:101890009C938E931297203080E0380780E04807B1
:1018A00080E4580758F314962D933D934D935C9321
:1018B000179708952F3F310579F4411551056105BA
:1018C000710519F484E08C93089564FF03C081E0EE
:1018D0008C9312C01C9210C02F57304013963C932B
:1018E0002E93129783E08C9387E0440F551F661F59
:1018F000771F8A95D1F7706414964D935D936D931D
:101900007C93179708951F93DC01FB019C91923003
:1019100008F447C08081823008F443C0943051F409
:1019200011961C91843099F58181682F70E0611BBC
:1019300071093FC0843021F0923031F48230B9F126
:101940008181882389F12DC011961C9111978230D5
:10195000F1F081811817D9F412962D913C911397CB
:10196000828193818217930794F028173907BCF07E
:1019700014968D919D910D90BC91A02D248135815F
:1019800046815781281739074A075B0718F4112346
:1019900041F00AC082179307A407B50740F411234A
:1019A00019F061E070E005C06FEF7FEF02C060E00A
:1019B00070E0CB011F910895AA1BBB1B51E107C02A
:1019C000AA1FBB1FA617B70710F0A61BB70B881FCF
:1019D000991F5A95A9F780959095BC01CD0108955E
:1019E0002F923F924F925F926F927F928F929F922F
:1019F000AF92BF92CF92DF92EF92FF920F931F931D
:101A0000CF93DF93CDB7DEB7CA1BDB0B0FB6F894CD
:101A1000DEBF0FBECDBF19942A88398848885F84FD
:101A20006E847D848C849B84AA84B984C884DF807E
:101A3000EE80FD800C811B81AA81B981CE0FD11D62
:101A40000FB6F894DEBF0FBECDBFED010895F89438
:021A5000FFCFC6
:101A52000000000000000000000102020303030373
:101A6200040404040404040405050505050505052C
:101A7200050505050505050506060606060606060C
:101A820006060606060606060606060606060606F4
:101A920006060606060606060707070707070707DC
:101AA20007070707070707070707070707070707C4
:101AB20007070707070707070707070707070707B4
:101AC20007070707070707070707070707070707A4
:101AD200070707070707070708080808080808088C
:101AE2000808080808080808080808080808080874
:101AF2000808080808080808080808080808080864
:101B02000808080808080808080808080808080853
:101B12000808080808080808080808080808080843
:101B22000808080808080808080808080808080833
:101B32000808080808080808080808080808080823
:101B42000808080808080808080808080808080813
:081B520008080808080808084B
:00000001FF
